{
  "_format": "hh-sol-artifact-1",
  "contractName": "TokenExchange",
  "sourceName": "contracts/TokenExchange.sol",
  "abi": [
    {
      "inputs": [
        {
          "internalType": "address",
          "name": "_tokenA",
          "type": "address"
        },
        {
          "internalType": "address",
          "name": "_tokenB",
          "type": "address"
        },
        {
          "internalType": "uint256",
          "name": "_exchangeRate",
          "type": "uint256"
        },
        {
          "internalType": "address",
          "name": "_owner",
          "type": "address"
        }
      ],
      "stateMutability": "nonpayable",
      "type": "constructor"
    },
    {
      "inputs": [
        {
          "internalType": "address",
          "name": "owner",
          "type": "address"
        }
      ],
      "name": "OwnableInvalidOwner",
      "type": "error"
    },
    {
      "inputs": [
        {
          "internalType": "address",
          "name": "account",
          "type": "address"
        }
      ],
      "name": "OwnableUnauthorizedAccount",
      "type": "error"
    },
    {
      "anonymous": false,
      "inputs": [
        {
          "indexed": true,
          "internalType": "address",
          "name": "previousOwner",
          "type": "address"
        },
        {
          "indexed": true,
          "internalType": "address",
          "name": "newOwner",
          "type": "address"
        }
      ],
      "name": "OwnershipTransferred",
      "type": "event"
    },
    {
      "anonymous": false,
      "inputs": [
        {
          "indexed": true,
          "internalType": "address",
          "name": "user",
          "type": "address"
        },
        {
          "indexed": false,
          "internalType": "uint256",
          "name": "amountA",
          "type": "uint256"
        },
        {
          "indexed": false,
          "internalType": "uint256",
          "name": "amountB",
          "type": "uint256"
        }
      ],
      "name": "Swap",
      "type": "event"
    },
    {
      "inputs": [],
      "name": "PRECISION",
      "outputs": [
        {
          "internalType": "uint256",
          "name": "",
          "type": "uint256"
        }
      ],
      "stateMutability": "view",
      "type": "function"
    },
    {
      "inputs": [
        {
          "internalType": "uint256",
          "name": "amount",
          "type": "uint256"
        }
      ],
      "name": "depositTokenB",
      "outputs": [],
      "stateMutability": "nonpayable",
      "type": "function"
    },
    {
      "inputs": [
        {
          "internalType": "uint256",
          "name": "amountA",
          "type": "uint256"
        }
      ],
      "name": "exchange",
      "outputs": [
        {
          "internalType": "uint256",
          "name": "amountB",
          "type": "uint256"
        }
      ],
      "stateMutability": "nonpayable",
      "type": "function"
    },
    {
      "inputs": [],
      "name": "exchangeRate",
      "outputs": [
        {
          "internalType": "uint256",
          "name": "",
          "type": "uint256"
        }
      ],
      "stateMutability": "view",
      "type": "function"
    },
    {
      "inputs": [],
      "name": "owner",
      "outputs": [
        {
          "internalType": "address",
          "name": "",
          "type": "address"
        }
      ],
      "stateMutability": "view",
      "type": "function"
    },
    {
      "inputs": [],
      "name": "renounceOwnership",
      "outputs": [],
      "stateMutability": "nonpayable",
      "type": "function"
    },
    {
      "inputs": [
        {
          "internalType": "uint256",
          "name": "newRate",
          "type": "uint256"
        }
      ],
      "name": "setExchangeRate",
      "outputs": [],
      "stateMutability": "nonpayable",
      "type": "function"
    },
    {
      "inputs": [],
      "name": "tokenA",
      "outputs": [
        {
          "internalType": "contract IERC20",
          "name": "",
          "type": "address"
        }
      ],
      "stateMutability": "view",
      "type": "function"
    },
    {
      "inputs": [],
      "name": "tokenB",
      "outputs": [
        {
          "internalType": "contract IERC20",
          "name": "",
          "type": "address"
        }
      ],
      "stateMutability": "view",
      "type": "function"
    },
    {
      "inputs": [
        {
          "internalType": "address",
          "name": "newOwner",
          "type": "address"
        }
      ],
      "name": "transferOwnership",
      "outputs": [],
      "stateMutability": "nonpayable",
      "type": "function"
    },
    {
      "inputs": [
        {
          "internalType": "uint256",
          "name": "amount",
          "type": "uint256"
        }
      ],
      "name": "withdrawTokenB",
      "outputs": [],
      "stateMutability": "nonpayable",
      "type": "function"
    }
  ],
  "bytecode": "0x60806040523480156200001157600080fd5b506040516200150c3803806200150c833981810160405281019062000037919062000301565b80600073ffffffffffffffffffffffffffffffffffffffff168173ffffffffffffffffffffffffffffffffffffffff1603620000ad5760006040517f1e4fbdf7000000000000000000000000000000000000000000000000000000008152600401620000a4919062000384565b60405180910390fd5b620000be816200019860201b60201c565b506000821162000105576040517f08c379a0000000000000000000000000000000000000000000000000000000008152600401620000fc9062000402565b60405180910390fd5b83600160006101000a81548173ffffffffffffffffffffffffffffffffffffffff021916908373ffffffffffffffffffffffffffffffffffffffff16021790555082600260006101000a81548173ffffffffffffffffffffffffffffffffffffffff021916908373ffffffffffffffffffffffffffffffffffffffff160217905550816003819055505050505062000424565b60008060009054906101000a900473ffffffffffffffffffffffffffffffffffffffff169050816000806101000a81548173ffffffffffffffffffffffffffffffffffffffff021916908373ffffffffffffffffffffffffffffffffffffffff1602179055508173ffffffffffffffffffffffffffffffffffffffff168173ffffffffffffffffffffffffffffffffffffffff167f8be0079c531659141344cd1fd0a4f28419497f9722a3daafe3b4186f6b6457e060405160405180910390a35050565b600080fd5b600073ffffffffffffffffffffffffffffffffffffffff82169050919050565b60006200028e8262000261565b9050919050565b620002a08162000281565b8114620002ac57600080fd5b50565b600081519050620002c08162000295565b92915050565b6000819050919050565b620002db81620002c6565b8114620002e757600080fd5b50565b600081519050620002fb81620002d0565b92915050565b600080600080608085870312156200031e576200031d6200025c565b5b60006200032e87828801620002af565b94505060206200034187828801620002af565b93505060406200035487828801620002ea565b92505060606200036787828801620002af565b91505092959194509250565b6200037e8162000281565b82525050565b60006020820190506200039b600083018462000373565b92915050565b600082825260208201905092915050565b7f45786368616e67652072617465206d75737420626520706f7369746976650000600082015250565b6000620003ea601e83620003a1565b9150620003f782620003b2565b602082019050919050565b600060208201905081810360008301526200041d81620003db565b9050919050565b6110d880620004346000396000f3fe608060405234801561001057600080fd5b50600436106100a95760003560e01c806376182baf1161007157806376182baf146101425780638da5cb5b1461015e578063a84003f31461017c578063aaf5eb6814610198578063db068e0e146101b6578063f2fde38b146101d2576100a9565b80630fc63d10146100ae5780633ba0b9a9146100cc57806353556559146100ea5780635f64b55b1461011a578063715018a614610138575b600080fd5b6100b66101ee565b6040516100c39190610a5a565b60405180910390f35b6100d4610214565b6040516100e19190610a8e565b60405180910390f35b61010460048036038101906100ff9190610ada565b61021a565b6040516101119190610a8e565b60405180910390f35b61012261056e565b60405161012f9190610a5a565b60405180910390f35b610140610594565b005b61015c60048036038101906101579190610ada565b6105a8565b005b610166610694565b6040516101739190610b28565b60405180910390f35b61019660048036038101906101919190610ada565b6106bd565b005b6101a06107a7565b6040516101ad9190610a8e565b60405180910390f35b6101d060048036038101906101cb9190610ada565b6107ad565b005b6101ec60048036038101906101e79190610b6f565b610802565b005b600160009054906101000a900473ffffffffffffffffffffffffffffffffffffffff1681565b60035481565b600080821161025e576040517f08c379a000000000000000000000000000000000000000000000000000000000815260040161025590610bf9565b60405180910390fd5b6127106003548361026f9190610c48565b6102799190610cb9565b905080600260009054906101000a900473ffffffffffffffffffffffffffffffffffffffff1673ffffffffffffffffffffffffffffffffffffffff166370a08231306040518263ffffffff1660e01b81526004016102d79190610b28565b602060405180830381865afa1580156102f4573d6000803e3d6000fd5b505050506040513d601f19601f820116820180604052508101906103189190610cff565b1015610359576040517f08c379a000000000000000000000000000000000000000000000000000000000815260040161035090610d78565b60405180910390fd5b600160009054906101000a900473ffffffffffffffffffffffffffffffffffffffff1673ffffffffffffffffffffffffffffffffffffffff166323b872dd3330856040518463ffffffff1660e01b81526004016103b893929190610d98565b6020604051808303816000875af11580156103d7573d6000803e3d6000fd5b505050506040513d601f19601f820116820180604052508101906103fb9190610e07565b61043a576040517f08c379a000000000000000000000000000000000000000000000000000000000815260040161043190610e80565b60405180910390fd5b600260009054906101000a900473ffffffffffffffffffffffffffffffffffffffff1673ffffffffffffffffffffffffffffffffffffffff1663a9059cbb33836040518363ffffffff1660e01b8152600401610497929190610ea0565b6020604051808303816000875af11580156104b6573d6000803e3d6000fd5b505050506040513d601f19601f820116820180604052508101906104da9190610e07565b610519576040517f08c379a000000000000000000000000000000000000000000000000000000000815260040161051090610f15565b60405180910390fd5b3373ffffffffffffffffffffffffffffffffffffffff167f77f92a1b6a1a11de8ca49515ad4c1fad45632dd3442167d74b90b304a3c7a7588383604051610561929190610f35565b60405180910390a2919050565b600260009054906101000a900473ffffffffffffffffffffffffffffffffffffffff1681565b61059c610888565b6105a6600061090f565b565b6105b0610888565b600260009054906101000a900473ffffffffffffffffffffffffffffffffffffffff1673ffffffffffffffffffffffffffffffffffffffff166323b872dd3330846040518463ffffffff1660e01b815260040161060f93929190610d98565b6020604051808303816000875af115801561062e573d6000803e3d6000fd5b505050506040513d601f19601f820116820180604052508101906106529190610e07565b610691576040517f08c379a000000000000000000000000000000000000000000000000000000000815260040161068890610faa565b60405180910390fd5b50565b60008060009054906101000a900473ffffffffffffffffffffffffffffffffffffffff16905090565b6106c5610888565b600260009054906101000a900473ffffffffffffffffffffffffffffffffffffffff1673ffffffffffffffffffffffffffffffffffffffff1663a9059cbb33836040518363ffffffff1660e01b8152600401610722929190610ea0565b6020604051808303816000875af1158015610741573d6000803e3d6000fd5b505050506040513d601f19601f820116820180604052508101906107659190610e07565b6107a4576040517f08c379a000000000000000000000000000000000000000000000000000000000815260040161079b90611016565b60405180910390fd5b50565b61271081565b6107b5610888565b600081116107f8576040517f08c379a00000000000000000000000000000000000000000000000000000000081526004016107ef90611082565b60405180910390fd5b8060038190555050565b61080a610888565b600073ffffffffffffffffffffffffffffffffffffffff168173ffffffffffffffffffffffffffffffffffffffff160361087c5760006040517f1e4fbdf70000000000000000000000000000000000000000000000000000000081526004016108739190610b28565b60405180910390fd5b6108858161090f565b50565b6108906109d3565b73ffffffffffffffffffffffffffffffffffffffff166108ae610694565b73ffffffffffffffffffffffffffffffffffffffff161461090d576108d16109d3565b6040517f118cdaa70000000000000000000000000000000000000000000000000000000081526004016109049190610b28565b60405180910390fd5b565b60008060009054906101000a900473ffffffffffffffffffffffffffffffffffffffff169050816000806101000a81548173ffffffffffffffffffffffffffffffffffffffff021916908373ffffffffffffffffffffffffffffffffffffffff1602179055508173ffffffffffffffffffffffffffffffffffffffff168173ffffffffffffffffffffffffffffffffffffffff167f8be0079c531659141344cd1fd0a4f28419497f9722a3daafe3b4186f6b6457e060405160405180910390a35050565b600033905090565b600073ffffffffffffffffffffffffffffffffffffffff82169050919050565b6000819050919050565b6000610a20610a1b610a16846109db565b6109fb565b6109db565b9050919050565b6000610a3282610a05565b9050919050565b6000610a4482610a27565b9050919050565b610a5481610a39565b82525050565b6000602082019050610a6f6000830184610a4b565b92915050565b6000819050919050565b610a8881610a75565b82525050565b6000602082019050610aa36000830184610a7f565b92915050565b600080fd5b610ab781610a75565b8114610ac257600080fd5b50565b600081359050610ad481610aae565b92915050565b600060208284031215610af057610aef610aa9565b5b6000610afe84828501610ac5565b91505092915050565b6000610b12826109db565b9050919050565b610b2281610b07565b82525050565b6000602082019050610b3d6000830184610b19565b92915050565b610b4c81610b07565b8114610b5757600080fd5b50565b600081359050610b6981610b43565b92915050565b600060208284031215610b8557610b84610aa9565b5b6000610b9384828501610b5a565b91505092915050565b600082825260208201905092915050565b7f416d6f756e74206d7573742062652067726561746572207468616e207a65726f600082015250565b6000610be3602083610b9c565b9150610bee82610bad565b602082019050919050565b60006020820190508181036000830152610c1281610bd6565b9050919050565b7f4e487b7100000000000000000000000000000000000000000000000000000000600052601160045260246000fd5b6000610c5382610a75565b9150610c5e83610a75565b9250828202610c6c81610a75565b91508282048414831517610c8357610c82610c19565b5b5092915050565b7f4e487b7100000000000000000000000000000000000000000000000000000000600052601260045260246000fd5b6000610cc482610a75565b9150610ccf83610a75565b925082610cdf57610cde610c8a565b5b828204905092915050565b600081519050610cf981610aae565b92915050565b600060208284031215610d1557610d14610aa9565b5b6000610d2384828501610cea565b91505092915050565b7f4e6f7420656e6f756768206c6971756964697479000000000000000000000000600082015250565b6000610d62601483610b9c565b9150610d6d82610d2c565b602082019050919050565b60006020820190508181036000830152610d9181610d55565b9050919050565b6000606082019050610dad6000830186610b19565b610dba6020830185610b19565b610dc76040830184610a7f565b949350505050565b60008115159050919050565b610de481610dcf565b8114610def57600080fd5b50565b600081519050610e0181610ddb565b92915050565b600060208284031215610e1d57610e1c610aa9565b5b6000610e2b84828501610df2565b91505092915050565b7f546f6b656e2041207472616e73666572206661696c6564000000000000000000600082015250565b6000610e6a601783610b9c565b9150610e7582610e34565b602082019050919050565b60006020820190508181036000830152610e9981610e5d565b9050919050565b6000604082019050610eb56000830185610b19565b610ec26020830184610a7f565b9392505050565b7f546f6b656e2042207472616e73666572206661696c6564000000000000000000600082015250565b6000610eff601783610b9c565b9150610f0a82610ec9565b602082019050919050565b60006020820190508181036000830152610f2e81610ef2565b9050919050565b6000604082019050610f4a6000830185610a7f565b610f576020830184610a7f565b9392505050565b7f546f6b656e2042206465706f736974206661696c656400000000000000000000600082015250565b6000610f94601683610b9c565b9150610f9f82610f5e565b602082019050919050565b60006020820190508181036000830152610fc381610f87565b9050919050565b7f546f6b656e2042207769746864726177616c206661696c656400000000000000600082015250565b6000611000601983610b9c565b915061100b82610fca565b602082019050919050565b6000602082019050818103600083015261102f81610ff3565b9050919050565b7f45786368616e67652072617465206d75737420626520706f7369746976650000600082015250565b600061106c601e83610b9c565b915061107782611036565b602082019050919050565b6000602082019050818103600083015261109b8161105f565b905091905056fea2646970667358221220c16bd2d3029923e46f4581c71e011889ae0efdc6216439aab23479bb8656095964736f6c63430008140033",
  "linkReferences": {},
  "deployedLinkReferences": {}
}